:100000000C94E4000C940C010C940C010C940C0165
:100010000C940C010C940C010C940C010C940C012C
:100020000C940C010C940C010C9410040C9482049C
:100030000C940C010C940C010C940C010C940C010C
:100040000C940C010C940C010C940C010C940C01FC
:100050000C940C010C940C010C940C010C94BF0634
:100060000C940C010C940C010C940C010C940C01DC
:100070000C940C010C940C010C940C010C940C01CC
:100080000C940C010C940C010C940C010C940C01BC
:100090000C940C010C940C010C940C010C940C01AC
:1000A0000C940C010C940C010C940C0134013701DC
:1000B00026012A012E015801580158013B013F0138
:1000C000430149014D015801530100000000240083
:1000D00027002A002D003000080B00020202010058
:1000E000090400000102020000052400100105249B
:1000F000010101042402060524060001070581030D
:1001000010004009040100020A0000000705020275
:100110004000000705830240000004030904417207
:100120006475696E6F204C4C430055534220494F13
:1001300020426F6172640012010002000000404121
:1001400023368000010102030112010002EF0201C7
:100150004041233680000101020301000000002518
:100160000028002B002E00310004040404040304C2
:100170000502020202040302020202060606060645
:100180000604040202020404040802011040804034
:1001900010204080408008020401804020100201AD
:1001A000108010204040200000000200090F0000D5
:1001B000030401000C00000000000000000000002B
:1001C000000000000000090711241FBECFEFDAE095
:1001D000DEBFCDBF11E0A0E0B1E0E4E0F0E102C09D
:1001E00005900D92A432B107D9F721E0A4E2B1E065
:1001F00001C01D92A439B207E1F710E0C4EED0E0CF
:1002000004C02197FE010E94F207C33ED107C9F73F
:100210000E941E070C94FD070C940000E4EBF1E033
:100220004491E5E9F1E02491E6E7F1E09491992326
:1002300009F451C04423E1F150E0FA013197EF3065
:10024000F105B0F5EA5AFF4F0C94F20730918000A7
:100250003F7707C0309180003F7D03C03091800020
:10026000377F3093800024C034B53F7702C034B567
:100270003F7D34BD1DC0309190003F7707C0309165
:1002800090003F7D03C030919000377F3093900005
:100290000FC03091C0003F7703C03091C0003F7D58
:1002A0003093C00005C03091C200377F3093C20048
:1002B000E92FF0E0EE0FFF1FE55AFE4FA591B49134
:1002C0009FB7F894EC91811103C020952E2301C0B3
:1002D0002E2B2C939FBF0895FC01809193018111D7
:1002E00003C08FEF9FEF08959FB7F89482E080934B
:1002F000E9002091F20030E01216130614F421E018
:1003000030E02115310559F0289884E68093920158
:100310008091F10080838091F200882319F09FBFC3
:10032000C90108958BE68093E800F9CFCF92DF9260
:10033000EF92FF920F931F93CF93DF936C017A019B
:100340008B01C0E0D0E0CE15DF0589F0D8016D91BA
:100350008D01D601ED91FC910190F081E02DC60157
:100360000995892B11F47E0102C02196ECCFC701BB
:10037000DF91CF911F910F91FF90EF90DF90CF9081
:100380000895CF93DF931F92CDB7DEB76983DC0169
:10039000ED91FC910280F381E02D41E050E0BE013F
:1003A0006F5F7F4F09950F90DF91CF91089583E0A4
:1003B0008093E9008091F200882319F08AE380930A
:1003C000E8000895CF93DF931F92CDB7DEB7FC010D
:1003D0008485958597FD05C02FEF3FEF35872487EE
:1003E0000BC0CE0101960E946C01019719F489811E
:1003F00090E002C08FEF9FEF0F90DF91CF910895B3
:100400000F931F93CF93DF931F92CDB7DEB78C016D
:10041000FC018485958597FF0EC0CE0101960E9450
:100420006C01019719F4298130E002C02FEF3FEFF2
:10043000F80135872487F801848595850F90DF9131
:10044000CF911F910F910895FC018485958597FDAB
:100450000BC09FB7F89482E08093E9008091F2008E
:100460009FBF90E0019608959FB7F89482E0809333
:10047000E9008091F2009FBF90E0089580913801DB
:1004800081110DC082E08093340184E080933501B6
:10049000109237011092360181E08093380184E395
:1004A00091E00895409130015091310120912E0149
:1004B00030912F0142175307B4F49091E8009570E2
:1004C000E1F39091E80092FD19C08093F1008091D2
:1004D00030019091310101968F739927892B19F47E
:1004E0008EEF8093E8008091300190913101019668
:1004F000909331018093300181E0089580E0089568
:10050000CF92DF92EF92FF920F931F93CF93DF93DF
:100510001F92CDB7DEB7182F062FE42E862F880F37
:100520008E5F99830E94520283E00E945202F12E54
:10053000C12E9981D92E8C2D8F19801798F4F60130
:10054000E7FE02C0849101C080810E945202182FF0
:1005500080E00E9452028123FFEFCF1ADF0A81114F
:10056000EACF01C081E00F90DF91CF911F910F91F1
:10057000FF90EF90DF90CF900895DF92EF92FF927F
:100580000F931F93CF93DF93D82E8A017B01E40E44
:10059000F51EEB01CE15DF0571F0D7FE03C0FE019D
:1005A000849101C088810E94520221968111F2CF6C
:1005B0008FEF9FEF01C0C801DF91CF911F910F9185
:1005C000FF90EF90DF9008950F931F93CF93DF93E9
:1005D0001F92CDB7DEB782E0898342E450E068ED38
:1005E00070E080E80E94BD020E943E02DC0112968B
:1005F0000D911C9113970115110569F0D801ED912A
:10060000FC910280F381E02DBE016F5F7F4FC80136
:10061000099597FF07C089810F90DF91CF911F91B6
:100620000F910895F80100851185E5CF615030F0F4
:100630002091F100FC0120830196F8CF289884E6F0
:100640008093920108953FB7F89480912901909189
:100650002A01A0912B01B0912C0126B5A89B05C0C1
:100660002F3F19F00196A11DB11D3FBFBA2FA92F31
:10067000982F8827820F911DA11DB11DBC01CD01AE
:1006800042E0660F771F881F991F4A95D1F708959A
:100690008F929F92AF92BF92CF92DF92EF92FF9292
:1006A0006B017C010E9423034B015C01C114D10446
:1006B000E104F104F1F00E942303DC01CB0188196D
:1006C0009909AA09BB09883E9340A105B10570F3B9
:1006D00021E0C21AD108E108F10888EE880E83E013
:1006E000981EA11CB11CC114D104E104F10419F736
:1006F000DDCFFF90EF90DF90CF90BF90AF909F90B5
:100700008F9008958F929F92AF92BF92CF92DF9277
:10071000EF92FF920F931F93CF93DF935C016B01D6
:100720008A0180910B01882309F45EC080919301B6
:10073000882309F459C08091410180FF05C0809150
:10074000E00082608093E000E8018AEFF82E93E0F9
:10075000E92E2FE3822E3AE3932E209709F43DC031
:100760008FB7F894E092E9009091E80095FF06C0F9
:100770009091F200282D291B922F01C090E08FBF8D
:1007800091110AC0FA94FF2079F161E070E080E0F5
:1007900090E00E944803E1CF292F30E0C217D30731
:1007A0000CF49C2F8FB7F894E092E9002091E800B8
:1007B00025FF11C0292F30E0C21BD30BF601915049
:1007C00020F041914093F100FACFC20ED31E9091D8
:1007D000E80095FF13C08FBFC0CF5D9884E680937B
:1007E00040011016110644F081E090E0F50193837A
:1007F000828380E090E005C0C80103C09092E800C9
:10080000EACFDF91CF911F910F91FF90EF90DF9092
:10081000CF90BF90AF909F908F9008950E94F8075F
:100820001F920F920FB60F9211248F939F93809176
:10083000E1009091E100937F9093E10083FF0FC06E
:100840001092E90091E09093EB001092EC0092E39B
:100850009093ED001092930198E09093F00082FF46
:1008600020C093E09093E9009091F200992319F051
:100870009AE39093E80090914001992339F0909188
:100880004001915090934001992389F190919201F8
:10089000992339F09091920191509093920199236C
:1008A00041F184FF10C08091E2008E7E81608093D0
:1008B000E2008091E1008F7E8093E1008091410110
:1008C0008E7E806111C080FF16C08091E2008E7E16
:1008D00080618093E2008091E1008E7E8093E10050
:1008E000809141018E7E81608093410104C05D9AB8
:1008F000CDCF289AD6CF9F918F910F900FBE0F909A
:100900001F9018951F920F920FB60F921124CF923D
:10091000DF92EF92FF920F931F932F933F934F938A
:100920005F936F937F938F939F93AF93BF93EF9357
:10093000FF93CF93DF93CDB7DEB76C97DEBFCDBF0C
:100940001092E9008091E80083FFFAC168E0CE01CF
:1009500045960E94160382EF8093E8008D8987FFF9
:1009600005C09091E80090FFFCCF03C09EEF9093EC
:10097000E800982F907609F0C6C09E892F89188DBF
:1009800091110CC0803829F4809133018093F100DB
:1009900002C01092F1001092F10047C1422F50E0C6
:1009A000512B913051F4811140C14130510509F072
:1009B0003CC1809133018D7F0BC0933061F4811174
:1009C00034C14130510509F030C18091330182605A
:1009D000809333012AC1953041F48091E80080FF73
:1009E000FCCF20682093E30020C1963009F05FC05F
:1009F000EB8CFC8C1092E9001092310110923001C6
:100A0000123091F510922F0110922E010E94E402F3
:100A100099E0BE016F5F7F4FDB01E92F1D92EA95E0
:100A2000E9F799831A8391E09E8390EA98879AEF79
:100A300099872091300130913101275F3F4F3C83EE
:100A40002B838D831092E9001092310110923001B6
:100A5000F0922F01E0922E0149E050E080E00E94E8
:100A6000BD020E94E402E1C0F0922F01E0922E014B
:100A70000E943E02DC011296ED90FC901397E11467
:100A8000F10409F4C0C0D701ED91FC910480F58117
:100A9000E02DBE016B5E7F4FC7010995009719F0ED
:100AA0000CF0C3C0C6C0F701E084F184E8CF9730F2
:100AB00009F4BFC0983021F481E08093F100B5C003
:100AC000993009F0B2C0837009F0B3C0EDE0F1E0F5
:100AD00081E021E036E39081992361F08093E90081
:100AE0002093EB0091919093EC003093ED008F5F99
:100AF000873089F78EE78093EA001092EA008F89A9
:100B00008093930192C08B8D9C8D1092E90010927E
:100B100031011092300190932F0180932E01898D25
:100B2000811156C08E899D89913A59F4813209F01C
:100B300080C047E050E064E071E080E00E94BD02C8
:100B400074C0913209F075C0833289F4888D90E0C9
:100B5000982F88272F89822BA0E0B0E08093000196
:100B600090930101A0930201B09303015EC0803213
:100B700069F48091E80082FFFCCF67E084E091E0B7
:100B80000E9416038BEF8093E80006C0823209F0C2
:100B90004CC08F8980930B0180913201882319F01A
:100BA000EEEFFAE002C0E0E0F8E0809104019091FD
:100BB0000501A0910601B0910701803B9440A10579
:100BC000B10509F088C080910B0180FFA0C083C0EF
:100BD0000E943E02DC0112960D911C9113970115A3
:100BE000110539F1D801ED91FC910190F081E02DD2
:100BF000BE016B5E7F4FC8010995811116C0F801D7
:100C000000851185ECCF1130C1F0133091F48F893C
:100C1000882309F455C08230E9F440E86CE08AE2A8
:100C200091E00E948002882321F08EEF8093E800FB
:100C300087C081E28093EB0083C08B8D9C8D0897E9
:100C400011F410932D0180912D01811136C067E3BD
:100C500071E038C0813029F440E86BE08EE191E02A
:100C6000E0CF833031F70E943E02DC011296ED9016
:100C7000FC9013978E010F5F1F4F6801E114F10480
:100C800079F0D701ED91FC910680F781E02DB80154
:100C9000C7010995080F111DF701E084F184EECF1B
:100CA000D8011C92F60101900020E9F73197BF01AD
:100CB0006C197D0940E0C601B4CF69E471E002C05F
:100CC0006AE171E06115710509F4B3CFFB0144914C
:100CD00050E080E833CF0FB6F894A895809160007B
:100CE000886180936000109260000FBEA895EE3F6F
:100CF0002AE0F20739F08091FE0A9091FF0A918371
:100D0000808393CF1092FF0A1092FE0A8ECFEE3F9F
:100D10008AE0F80731F0808191819093FF0A8093F7
:100D2000FE0A87E797E7918380839BE088E10FB60F
:100D3000F894A895809360000FBE9093600075CFE3
:100D40006C960FB6F894DEBF0FBECDBFDF91CF918A
:100D5000FF91EF91BF91AF919F918F917F916F9193
:100D60005F914F913F912F911F910F91FF90EF90C5
:100D7000DF90CF900F900FBE0F901F9018951F928D
:100D80000F920FB60F9211242F933F938F939F933F
:100D9000AF93BF938091250190912601A0912701E7
:100DA000B09128013091240123E0230F2D3720F446
:100DB0000196A11DB11D05C026E8230F0296A11DB5
:100DC000B11D209324018093250190932601A093C7
:100DD0002701B09328018091290190912A01A091C7
:100DE0002B01B0912C010196A11DB11D8093290109
:100DF00090932A01A0932B01B0932C01BF91AF9146
:100E00009F918F913F912F910F900FBE0F901F9048
:100E10001895E2E4F1E01382128288EE93E0A0E0FC
:100E2000B0E084839583A683B78387E191E09183C3
:100E300080838FEF9FEF958784870895789484B59A
:100E4000826084BD84B5816084BD85B5826085BDC6
:100E500085B5816085BD80916E00816080936E0054
:100E60001092810080918100826080938100809146
:100E700081008160809381008091800081608093F7
:100E80008000809191008260809391008091910018
:100E900081608093910080919000816080939000A8
:100EA0008091C10084608093C1008091C100826004
:100EB0008093C1008091C10081608093C1008091C6
:100EC000C30081608093C3008091C00082608093E2
:100ED000C0008091C20081608093C20080917A003E
:100EE000846080937A0080917A00826080937A0097
:100EF00080917A00816080937A0080917A00806886
:100F000080937A0010929301109233011092410164
:100F10008091D70081608093D70080EA8093D800C9
:100F200089B5806189BD89B5826089BD09B400FE3B
:100F3000FDCF61E070E080E090E00E944803809186
:100F4000D8008F7C80618093D8008091E000807F02
:100F50008093E0008091E1008E7E8093E1008DE03F
:100F60008093E200559A209AEEEFFFE785919491E5
:100F70008B3F9C4D19F481E080933201E5E9F1E06B
:100F80002491E6E7F1E08491882399F090E0880FBE
:100F9000991FFC01E653FF4FA591B491FC01E55A5E
:100FA000FE4F859194918FB7F894EC91E22BEC93DE
:100FB0008FBFC0E0D0E081E00E940E0164EF71E0DD
:100FC00080E090E00E94480380E00E940E0164EF00
:100FD00071E080E090E00E944803209761F30E9456
:100FE0000000E9CFEE0FFF1F0590F491E02D09946A
:100FF00081E090E0F8940C940008F8940C940008B8
:04100000F894FFCF92
:10100400FFFFFFFF00E100000000000000C180813D
:1010140000000000000000C10182032402E201007C
:0410240002D70100EE
:00000001FF
